:0102F100000C
:100C0C00EB2A150C7CB500EBCD80177CB5C91E44C6
:100C1C000E0CCD0500FE2220057C000028031100DF
:070C2C0000EB00000018E4DA
:10178000C5E51132180E69CD05002132185E2356C9
:10179000EBCDAA17E5D1E1F572237323F177233A54
:1017A000341877233A351877C1C97CB5C8222F1869
:1017B000064ECD12181193FE20011B19300A7CB57C
:1017C0002806222F180418EA78CD1718323118CDC0
:1017D00012183EE420023EE33224182A2F18112367
:1017E0001806FF3E00F51A4FF1222F1809133C3856
:1017F000F4472A2F187CB520071B1B1A2F3C6F05B6
:101800007DCD1718F578CD17186F3A311867F6FFA8
:10181000F1C978E6FCB8C9B7C8C547AFC6012710FB
:0F182000FBC1C9E1E4E1E2E1E2E1E1E2E1E2E1A1
:00000001FF
