:10000000203084002C300820D02E04068001840A81
:100010000406031D05286400003483120313AC009A
:10002000AD1B1B282D1B23282D088A002C08AC0A89
:100030000319AD0A820083132D1883172C08AC0A0C
:0600400084000008080026
:1002000082070A345C340034003400340034003493
:100210000034713431340034003400347A347334AF
:1002200061347734323400340034633478346434E5
:100230006534343433340034003420347634663456
:10024000743472343534003400346E3462346834BB
:100250006734793436340034003400346D346A3411
:10026000753437343834003400342C346B3469340A
:100270006F3430343934003400342E342D346C343F
:100280004034703427340034003400342B340034CC
:100290005B345E3400340034003400340D345D349B
:1002A000003400340034003400343C340034003472
:1002B0000034003408340034003431340034343431
:1002C000373400340034003430342E343234353492
:1002D000363438341B34003400342B3433342D346A
:1002E0002A3439340A3460340034003400340034A1
:1002F00000340034713431340034003400347A3442
:1003000073346134773432340034003463347834F5
:100310006434653434343334003400342034763477
:100320006634743472343534003400346E346234DC
:1003300068346734793436340034003400346D3432
:100340006A34753437343834003400342C346B3428
:1003500069346F3430343934003400342E342F345F
:100360006C343B3470342D34003400340034273482
:1003700000345B343D3400340034003400340D3438
:100380005D3400345C340034003400340034003414
:100390000034003400340834003400343134003484
:1003A0003434373400340034003430342E343234B2
:1003B0003534363438341B34003400342B34333481
:0603C0002D342A3439340B
:1004000082070A341C3400340034003400340034D1
:100410000034113400340034003400341A341334FE
:1004200001341734003400340034033418340434F5
:1004300005340034003400340034203416340634DB
:10044000143412340034003400340E3402340834CE
:100450000734193400340034003400340D340A34C5
:100460001534003400340034003400340B340934C3
:100470000F340034003400340034003400340C34C1
:1004800000341034003400340034003400340034BC
:100490001B341E3400340034003400340D341D3459
:1004A00000340034003400340034003400340034AC
:1004B0000034003408340034003400340034003494
:1004C000003400340034003400340034003400348C
:1004D000003400341B340034003400340034003461
:1004E000003400340A341E34003400340034003444
:1004F00000340034113400340034003400341A3431
:100500001334013417340034003400340334183405
:1005100004340534003400340034003420341634FC
:100520000634143412340034003400340E340234EF
:1005300008340734193400340034003400340D34E6
:100540000A341534003400340034003400340B34E1
:1005500009340F34003400340034003400340034E3
:100560000C340034103400340034003400340034CF
:1005700000341B34003400340034003400340D34B3
:100580001D3400341C340034003400340034003492
:1005900000340034003408340034003400340034B3
:1005A00000340034003400340034003400340034AB
:1005B0000034003400341B34003400340034003480
:0605C00000340034003499
:1006000082070A347C34003400340034003400346F
:100610000034513421340034003400345A3453341B
:100620004134573422340034003443345834443491
:1006300045342434233400340034203456344634D2
:10064000543452342534003400344E344234483467
:100650004734593426340034003400344D344A349D
:1006600055342F342834003400343B344B3449346F
:100670004F343D342934003400343A345F344C3440
:10068000603450343F340034003400342A340034B1
:100690007B347E3400340034003400340D347D3437
:1006A000003400340034003400343E34003400346C
:1006B000003400340834003400343134003434342D
:1006C000373400340034003430342E34323435348E
:1006D000363438341B34003400342B3433342D3466
:1006E0002A3439340A347E3400340034003400347F
:1006F00000340034513421340034003400345A348E
:100700005334413457344034003400344334583483
:1007100044344534243423340034003420345634F3
:100720004634543452342534003400344E34423488
:100730004834473459345E340034003400344D3486
:100740004A34553426342A34003400343C344B3493
:1007500049344F3429342834003400343E343F3493
:100760004C343A3450345F34003400340034223492
:1007700000347B342B3400340034003400340D3426
:100780007D3400347C3400340034003400340034D0
:100790000034003400340834003400343134003480
:1007A0003434373400340034003430342E343234AE
:1007B0003534363438341B34003400342B3433347D
:1007C0002D342A343934093083120313A800A901C7
:1007D000A90A85108316851083120510831605104B
:1007E00021308312AA00F52BF52BAA0BF82BF92B3D
:1007F000F42B83160514FC2B83120518002C012CF6
:10080000FC2B112C211C052C062C082C8514092CE2
:1008100085100C25211C0D2C0E2C0F2CA90A031061
:10082000A10CA80B142C152C022C291C182C192CEB
:100830001B2C85141C2C85100C2583168514202C4C
:1008400083128518242C252C202C262C0518292CC5
:100850002A2C262C2B2C851C322C2E2C051C322CC1
:10086000312C342C332C2B2C051083160510382CEE
:100870008312080083120313A01120120930A8006C
:10088000A20183160514442C83120518482C492C08
:10089000442C522C0310A20C0C25851C502C512CDE
:1008A000522CA217A80B552C562C4A2C0C250C2583
:1008B000592C051C5C2C5D2C592C05108316051039
:1008C00083122208F03A031D662C672C692C20162F
:1008D000702C2208E03A031D6E2C6F2C702CA01592
:1008E0002208E03A03197B2C752C2208F03A0319F0
:1008F0007B2C7A2C7D2C7C2C3E2C7E2C08008312A9
:10090000A9002608AA002708AB0083169C18852C8E
:100910008312290383169B00AA2C83169C188D2C06
:1009200083122B08AD002A080D2083169A0083122B
:10093000AA0A0319AB0A83169B0A03108B1B031424
:100940008B131C1555309D00AA309D009C141C1162
:1009500003188B178312A803280F8D2C2908080071
:100960008312A800A900260883169B009C1CC52C96
:10097000B62C83161C1483122908840083161A08C7
:1009800080008312A90A83169B0A8312A703270FEC
:10099000B92C2808080083120313A700ED30A1002A
:1009A000E3233A242208FA3A031DD72CD82CD02C62
:1009B0002708A100E3233A242208FA3A031DE12C78
:1009C000E22CDA2CE32C080083120313A700043076
:1009D000A8005330A900ED2CED2CA90BF02CF12C24
:1009E000EC2CA80BF42CF52CE92CA70BF82CF92CEB
:1009F000E72C080083120313A6000730CB246430D1
:100A0000E4240030CB246430E424A603260F092D0F
:100A10000A2DFD2C0B2D08000D2D83120313051C30
:100A2000122D132D0D2D142D0518172D182D142DE5
:040A3000192D080074
:100DA0000030A6000130A700831203132330B024C3
:100DB00007309F00051583160511FF30831286004A
:100DC00083168601E42E3A248312A2080319E92E21
:100DD000EA2EE32E0230CB243A24A2080319F12E86
:100DE000F22EEC2E8617A401A01DF72EF82E2A2F26
:100DF000182FA014201EFD2EA010292F2015201E14
:100E0000022F2011292F201A062F072F092F2F30EC
:100E1000A400292F201A0D2F0E2F102F0D30A40003
:100E2000292F201A142F152F172F7F30A400292FB8
:100E30002208113A0319F92E053A0319FE2E5E3ADB
:100E40000319032F103A03190A2F2B3A0319112FF4
:100E5000292FDE2FC72F201A322F2E2F201C322FA2
:100E6000312F342F332F462F0030CB24C830E424C9
:100E70000130A30623080139FA24201B442F402FF8
:100E80000230452F0630452F422FCB24DE2F201A6B
:100E90004E2F4A2F201D4E2F4D2F4F2F532F201CEA
:100EA000532F522F552F542F6C2F0030CB24C83086
:100EB000E4242330A6008030A7000130A8000030D1
:100EC0007F240230FA24201B6A2F662F02306B2FFA
:100ED00006306B2F682FCB24DE2F2014201E712F9D
:100EE0002010DE2FA016201E762FA012DE2F201538
:100EF000201E7B2F2011DE2F201A7F2F802F8B2F7B
:100F00004030A006201B892F852F02308A2F063003
:100F10008A2F872FCB24DE2F201A952F8F2F0D306D
:100F20002202031C952F942F962F9C2F7E30220295
:100F300003189C2F9B2F9E2F9D2FC62FF330A207A7
:100F40000130A3050319A52FA62FA82F7130A207E2
:100F5000201DAB2FAC2FB22F02308A0022080022B6
:100F6000A400C62FA01EB52FB82F201FB92FB82F51
:100F7000BB2FBA2FC12F03308A0022080023A40000
:100F8000C62F01308A0022080021A400DE2F22088B
:100F9000053A03192B2F0C3A0319472F183A031956
:100FA0006D2F033A0319722F063A0319772F4C3A23
:100FB00003197C2F013A0319722F8C2F831203130C
:100FC000A4080319E42FE52FF12F24098600F5303A
:100FD000A500EB2FEB2FA50BEE2FEF2FEA2F86139B
:100FE000FD2F201CF82FF42FA01CF82FF72FFA2F1D
:100FF000F92FFC2F0511FD2F0515EC2E830100287C
:02400E00503F21
:024200000000BC
:00000001FF
