:040000008A11FA2F38
:10005200F5007430F000F101F10A75088A114021AF
:100062008A1108008312051C3728382833280518FE
:100072003B283C2838280800F5007508F000F101FB
:10008200F10A74308A11AA208A1174080800F0005B
:100092005B30700203184E284F28562841307002F8
:1000A200031C542855285628F01670080800F00042
:1000B2007B30700203185E285F2866286130700268
:1000C200031C642865286628F01270080800780866
:1000D200F0007908F100F2018E30F300F4018A1188
:1000E200E8218A117008F8007108F9007208FA0014
:1000F2000800F200F101721C7F2880288228700813
:10010200F1070310F00D0310F20C7208031D8A2888
:100112008B287C2871080800F401F501701C9228D4
:10012200932899287208F4070318F50A7308F5074B
:100132000310F20DF30D0310F10CF00C70087104B2
:10014200031DA428A5288F287508F1007408F00063
:100152000800F3007308F20083169C18B128B22835
:10016200AD2870089B00C1289C18B828B928B5286A
:100172009C131C14720884001A088000F20A9B0A5D
:10018200F103710A031DC628C728B5280800831287
:10019200C5004508013EC6004608031DD128D228E5
:1001A200D328E92807308A1112218A1101308A11D5
:1001B20071218A1100308A1112218A1101308A11AB
:1001C20071218A11C6034608031DE828E928D328AD
:1001D20008003A08F9003908F8008A1168208A11E3
:1001E2007808A3007908A4007A08A5000030A000CE
:1001F2008030A1003F30A2008A110A238A11200810
:10020200AC002108AD002208AE008A1195228A11A5
:100212002C08BB002D08BC002E08BD002F08BE0014
:1002220008008312C300FE30C4002529ED308A1174
:100232003C228A118A11A3218A118312C400440824
:100242000319242925291B29FE30440603192A29CA
:100252002B29172943088A113C228A118A11A321CA
:100262008A118312C40044080319382939292F2915
:10027200FE30440603193E293F292B290800F300CA
:100282007008F20083169C184729482943297308ED
:10029200FF3E9B009C136A299C18502951294D2925
:1002A2007208840000089A00F20A9B0A03108B1F4E
:1002B2005B295C295D2903148B131C1555309D00A5
:1002C200AA309D009C141C11031C682969296A2903
:1002D2008B17F103710A031D6F2970294D2908003C
:1002E200F3008316811201128111011501197A2975
:1002F2007E29831603138114812983160313811027
:100302008118842988298316031301148B298316E3
:10031200031301107E30831281000330F000730852
:100322008A117A208A11F4007408031D99299A29E6
:100332009B29A2290B1D9E299F299B290B11F4039E
:100342009529080083162013A0130930F000F1014B
:10035200051483120518AE29AF29AA29BA29031058
:10036200F10C8A1133208A11851CB829B929BA29BE
:10037200F117F00BBD29BE29B0298A1133208A1149
:100382008A1133208A11051CC729C829C4290510DE
:1003920083160510F0307106031DD029D129D32907
:1003A200A017DA29E0307106031DD829D929DA29E4
:1003B2002017E03071060319DF29E029A629F03061
:1003C20071060319E529E629A629710808007308B0
:1003D2000319EC29ED29F429720871047004031D34
:1003E200F329F429FD29F001F101F2013B2AF30A74
:1003F2000310F20CF10CF00CFE307205031D022A00
:10040200032AF8290E2AF30AF00A0319F10A03193A
:10041200F20A0310F20CF10CF00CFF307205031D0E
:10042200132A142A042A1A2AF3030310F00DF10DD9
:10043200F20DF11B1D2A1E2A242A02307302031810
:10044200232A242A152A7318272A282A292AF1134B
:100452000310F30C7308F700F601F5017508F004B8
:100462007608F1047708F20474080319392A3A2A43
:100472003B2AF2170800C2000930C000C101C10ABC
:1004820005108316051064308312B900BA018A116F
:10049200EA208A118312031385108316851005142E
:1004A20083120518552A562A512A682A421C5A2AAA
:1004B2005B2A5D2A85145E2A85108A1133208A11EF
:1004C200421C642A652A662AC10A0310C20CC00BA8
:1004D2006B2A6C2A572A411C6F2A702A722A8514A9
:1004E200732A85108A1133208A1183168514831288
:1004F20085187C2A7D2A782A0518802A812A7D2A55
:10050200051C842A862A0130872A0030BF00851CF8
:100512008B2A8D2A01308E2A00303F040319812A4A
:1005220005108316051008002C08B0002D08B10034
:100532002E08B2000310310D320DB8003808031D29
:10054200A32AA42AA92AAC01AD01AE01AF01092B4D
:100552002C08B0002D08B1002E08B200173003108D
:10056200B20CB10CB00CFF3E031DB02A3008B30030
:10057200AD17FF30AC05FF30AD050030AE052C08DD
:10058200B4002D08B5002E08B600B7018E30B802AF
:10059200B81FCC2ACD2ADF2A3808803A8F3E0318AA
:1005A200D32AD42AD52AA42A0310B70CB60CB50C28
:1005B200B40CB80FDD2ADE2AD52AF12A1830380207
:1005C200031CE42AE52AEC2AA42A0310B40DB50D73
:1005D200B60DB70DB8033808031DF02AF12AE62A32
:1005E20033080319F52AF62A012BB409B509B6090D
:1005F200B709B40A0319B50A0319B60A0319B70AE7
:100602003708AF003608AE003508AD003408AC003C
:1006120008002008FB002108FC002208FD0003104E
:100622007C0D7D0DA6002608031D182B192B1D2BF2
:10063200A001A101A2019B2B2308FB002408FC00BE
:100642002508FD0003107C0D7D0DAB002B08031D5A
:100652002B2B2C2B302BA001A101A2019B2B2B08B1
:100662007B3EA6072208AB002508AB068030AB050F
:10067200A117A417FF30A305FF30A4050030A5057C
:10068200A701A801A9010730AA00201C492B4A2B67
:100692005A2B2308A707240803110318240A031955
:1006A200532BA807250803110318250A03195A2BEF
:1006B200A9070310A20CA10CA00C0310A30DA40DFA
:1006C200A50DAA0B652B662B462B0930AA00201C10
:1006D2006B2B6C2B7C2B2308A70724080311031810
:1006E200240A0319752BA807250803110318250AE4
:1006F20003197C2BA9070310A20CA10CA00C031058
:10070200A90CA80CA70CAA0B872B882B682B2708EF
:10071200F0002808F1002908F2002608F3002B084F
:10072200F4008A11E8218A117008A0007108A10062
:100732007208A200080000308A113D208A1108398F
:10074200031DA42BA82B831603132114AB2B831692
:10075200031321102118AE2BAF2BB32B8312CD0123
:10076200CE01B72B02308312CD00CE014D08D90045
:1007720000308A113D208A110439031DC12BC52B7B
:10078200831603132014C82B831603132010003082
:100792008A113D208A118312DA000330DA0507300C
:1007A2009F000515831605118515FF3083128600FB
:1007B200831686018A11A3218A11003A0319E22BBA
:1007C200E32BDB2B831259088A1112218A118A1119
:1007D200A3218A118312DC005C080319F12BF22B8E
:1007E200E82B8617DB01D701D80183162118FA2BD3
:1007F200FB2B252C012C831620178312DC01252CC0
:1008020083125C08693A0319FC2B023A0319FC2B88
:10081200073A0319FC2B1C3A0319FC2B013A031962
:10082200FC2B033A0319FC2B013A0319FE2B073A5E
:100832000319FC2B013A0319FC2B0F3A0319FC2B69
:10084200073A0319FC2B252C8316201F292C2A2C4E
:10085200152D372C83162015A01F302C2011402C6B
:1008620083162016A01F362C2012402C83125C08FF
:10087200113A03192B2C053A0319312C402C8316FB
:100882000313A01B452C462C8A2FDC2C2F30DB00B7
:100892008A2F0D30DB008A2F8316201E512C522CFA
:1008A200622CA01D552C562C5A2C1F308312DB00B3
:1008B2008A2F201C5D2C5E2C6A2C14308312DB00E4
:1008C2008A2F201C652C662C6A2C07308312DB00D1
:1008D2008A2F8A2F8316201C6F2C702C6A2C1630BC
:1008E2008312DB008A2F8316201C782C792C6A2C29
:1008F20053308312D7008A2F8316201C812C822C1E
:100902006A2C44308312D7008A2F8316201C8A2C2B
:100912008B2C6A2C12308312DB008A2F8316201C48
:10092200932C942C6A2C03308312DB008A2F8316BB
:10093200201C9C2C9D2C6A2C201EA02CA12CA52CAA
:1009420017308312DB008A2F05308312DB008A2FD7
:100952008316201CAD2CAE2C6A2C201EB12CB22C7E
:10096200B62C1A308312DB008A2F18308312DB0078
:100972008A2F8316201CBE2CBF2C6A2C201EC22C50
:10098200C32CC72C8312DB01DB0A8A2F133083129C
:10099200DB008A2F8316201CCF2CD02C6A2C201E21
:1009A200D32CD42CD82C06308312DB008A2F0430AF
:1009B2008312DB008A2F83125C084A3A0319472C00
:1009C200103A03194A2C333A03197D2C023A0319BF
:1009D200BA2C073A0319742C1C3A03196B2C013AEE
:1009E20003194D2C033A0319A92C063A0319CB2CEF
:1009F200013A0319982C0F3A03198F2C073A03195D
:100A0200862C8A2F8316A015A01F082DA011242D35
:100A12008316A016A01F0E2DA012242D83162016B9
:100A2200A01F142D2012242D83125C08113A0319E1
:100A3200032D033A0319092D063A03190F2D4D3AD6
:100A42000319092D242D83160313A01B292D2A2DEA
:100A52008A2F5A2F8316A01D2F2D302D492D00309D
:100A62008A1112218A1102308A1171218A11DA0A3D
:100A720003305A06031D3E2D3F2D402DDA015A0840
:100A82008A11C8208A1159088A1112218A118A2FC3
:100A9200201C4C2D4D2D6A2C41308312D8008A2FF8
:100AA2008316A01D552D562D6C2D00308A11122152
:100AB2008A1102308A1171218A1101308316A0062F
:100AC2000030201801308A11C8208A1159088A1171
:100AD20012218A118A2F201C6F2D702D6A2C423010
:100AE2008312D8008A2F8316201C782D792D8A2F05
:100AF20043308312D8008A2F8316201C812D822D29
:100B02008A2F44308312D8008A2F8316201C8A2D04
:100B12008B2D8A2F45308312D8008A2F8316201CF2
:100B2200932D942D8A2F46308312D8008A2F831654
:100B3200201C9C2D9D2D8A2F47308312D8008A2F8E
:100B42008316201CA52DA62D8A2F48308312D8008B
:100B52008A2F8316201CAE2DAF2D8A2F4930831287
:100B6200D8008A2F8316201EB72DB82D092EA01D5E
:100B7200BB2DBC2D092E00308A1112218A110230A0
:100B82008A1171218A115A08F40000308A11292031
:100B92008A112018CD2DCE2DD72D00308A113D205F
:100BA2008A11FB398312D300D401DF2D00308A1160
:100BB2003D208A118312D300D40153155308F40047
:100BC20000308A1129208A112118E82DE92DF22DF1
:100BD20000308A113D208A11F7398312D500D601DF
:100BE200FA2D00308A113D208A118312D500D601D8
:100BF200D5155508F40000308A1129208A110430D5
:100C02008A11C8208A1159088A1112218A118A2F41
:100C1200201C0C2E0D2E6A2C4A308312D8008A2FEB
:100C22008316201C152E162E8A2F4B308312D800C5
:100C32008A2F8316201C1E2E1F2E8A2F4C308312C1
:100C4200D8008A2F8316201C272E282E2C2E0930FE
:100C52008312DB008A2F0A308312DB008A2F0230D4
:100C62008316A006A018362E372E3D2E8312591158
:100C72005908CF00D001422E831259155908CF00CE
:100C8200D0014F088A1112218A118A2F013083164E
:100C9200A10621184D2E4E2E542E8312D91059081A
:100CA200D100D201592E8312D9145908D100D20190
:100CB20051088A1112218A118A2F0E305C02031CFC
:100CC200632E642E8A2F7E305C020318692E6A2EF0
:100CD2008A2F0E30DC028316201E702E712E972E64
:100CE20083125C08C700C8015A08F000F101703095
:100CF200F200F3018A118D208A11B230C9008A30C4
:100D0200CA0070084907CB0071080318710A4A0724
:100D1200CC0047084B07840048080318480A4C07D0
:100D2200FF008A1500208A11DB008A2FA01E9A2E4E
:100D32009B2E202F201C9E2E9F2ED02E83125C08CD
:100D4200C700C8015A08F000F1017030F200F30147
:100D52008A118D208A116230C9008930CA00700858
:100D62004907CB0071080318710A4A07CC004708EB
:100D72004B07840048080318480A4C07FF008A15ED
:100D820000208A11DB008316A01CC82EC92E6A2CF3
:100D920083125B088A1148208A11DB008A2FA01C6B
:100DA200D32ED42EFA2E83125C08C700C8015A082B
:100DB200F000F1017030F200F3018A118D208A11E6
:100DC2001230C9008830CA0070084907CB00710888
:100DD2000318710A4A07CC0047084B0784004808E9
:100DE2000318480A4C07FF008A1500208A11DB000D
:100DF2008A2F83125C08C700C8015A08F000F1016B
:100E02007030F200F3018A118D208A116230C9001C
:100E12008930CA0070084907CB0071080318710AAB
:100E22004A07CC0047084B07840048080318480AC1
:100E32004C07FF008A1500208A11DB008A2F201C34
:100E4200232F242F552F83125C08C700C8015A088C
:100E5200F000F1017030F200F3018A118D208A1145
:100E62001230C9008830CA0070084907CB007108E7
:100E72000318710A4A07CC0047084B078400480848
:100E82000318480A4C07FF008A1500208A11DB006C
:100E92008316A01C4D2F4E2F6A2C83125B088A11D9
:100EA20058208A11DB008A2FA01C582F592FD42ECC
:100EB200FA2E83125C08013A0319AA2D023A031989
:100EC200862D073A0319742D013A03192B2D033A83
:100ED2000319512D013A03191A2E0E3A0319B32D93
:100EE200033A0319A12D013A03198F2D073A031969
:100EF2007D2D013A0319232E553A0319302E2F3A2C
:100F02000319472E0F3A0319112EFB3A0319982D94
:100F12005E2E8312580803198F2F902FA92FE430C9
:100F22008600DC30B9000530BA008A11EA208A1145
:100F32008312031386139430B9001130BA008A1158
:100F4200EA208A118312031386175808DB00C62F82
:100F520057080319AD2FAE2FC62FEE308600DC30B6
:100F6200B9000530BA008A11EA208A1183120313EC
:100F720086139430B9001130BA008A11EA208A111E
:100F82008312031386175708DB001F305B06031D0D
:100F9200CB2FCC2FD02F851183168511E82B8316EA
:100FA200851583125B080319D72FD82FE52F5B090C
:100FB2008600DC30B9000530BA008A11EA208A11B5
:100FC200831203138613E82B83162018E92FEA2FC6
:100FD200E82BA01DED2FEE2FF52F201DF12FF22F64
:100FE200F52F83120511E82B83120515E82B8A11C0
:100FF200002883160313A00183018A119C2BFF1B77
:101002000A2883137F1883170008840A0319FF0A2A
:1010120008007F087F398A000408840A0319FF0A3E
:1010220082005C3400340034003400340034003474
:10103200713431340034003400347A34733461341E
:1010420077343234003400346334783464346534B1
:101052003434333400340034203476346634743417
:1010620072343534003400346E3462346834673498
:10107200793436340034003400346D346A347534D3
:1010820037343834003400342C346B3469346F34E0
:1010920030343934003400342E342D346C3440343E
:1010A200703427340034003400342B3400345B3481
:1010B2005E3400340034003400340D345D340034C6
:1010C20000340034003400343C3400340034003442
:1010D20000340834003400343134003434343734CA
:1010E20000340034003430342E3432343534363463
:1010F20038341B34003400342B3433342D342A3446
:1011020039346034003400340034003400340034A4
:10111200713431340034003400347A34733461343D
:1011220077343234003400346334783464346534D0
:101132003434333400340034203476346634743436
:1011420072343534003400346E34623468346734B7
:10115200793436340034003400346D346A347534F2
:1011620037343834003400342C346B3469346F34FF
:1011720030343934003400342E342F346C343B3460
:1011820070342D34003400340034273400345B349E
:101192003D3400340034003400340D345D34003406
:1011A2005C34003400340034003400340034003441
:1011B20000340834003400343134003434343734E9
:1011C20000340034003430342E3432343534363482
:1011D20038341B34003400342B3433342D342A3465
:1011E20039346034003400340034003400340034C4
:1011F200713431340034003400347A34733461345D
:1012020077343234003400346334783464346534EF
:101212003434333400340034203476346634743455
:1012220072343534003400346E34623468346734D6
:10123200793436340034003400346D346A34753411
:1012420037343834003400342C346B3469346F341E
:1012520030343934003400342E342F346C343B347F
:1012620070342D34003400340034273400345B34BD
:101272003D3400340034003400340D345D34003425
:1012820023340034003400345C340034003400343D
:101292000034083400340034313400343434373408
:1012A20000340034003430342E34323435343634A1
:1012B20038341B34003400342B3433342D342A3484
:1012C20039347C34003400340034003400340034C7
:1012D200513421340034003400345A34533441340C
:1012E20057342234003400344334583444344534BF
:1012F20024342334003400342034563446345434F5
:1013020052342534003400344E34423448344734A5
:10131200593426340034003400344D344A345534C0
:101322002F342834003400343B344B3449344F34A6
:101332003D342934003400343A345F344C34603460
:1013420050343F340034003400342A3400347B34C7
:101352007E3400340034003400340D347D340034E3
:1013620000340034003400343E340034003400349D
:101372000034083400340034313400343434373427
:1013820000340034003430342E34323435343634C0
:1013920038341B34003400342B3433342D342A34A3
:1013A20039347E34003400340034003400340034E4
:1013B200513421340034003400345A34533441342B
:1013C20057344034003400344334583444344534C0
:1013D2002434233400340034203456344634543414
:1013E20052342534003400344E34423448344734C5
:1013F20059345E340034003400344D344A345534A8
:1014020026342A34003400343C344B3449344F34CB
:1014120029342834003400343E343F344C343A34D6
:1014220050345F34003400340034223400347B34CE
:101432002B3400340034003400340D347D34003455
:101442007C3400340034003400340034003400347E
:101452000034083400340034313400343434373446
:1014620000340034003430342E34323435343634DF
:1014720038341B34003400342B3433342D342A34C2
:101482003934003400340034003400340034003481
:10149200513421340034003400345A34533441344A
:1014A20057342234003400344334583444344534FD
:1014B2002434003400340034203456344634543456
:1014C20052342534003400344E34423448344734E4
:1014D20059345E340034003400344D344A345534C7
:1014E20026342A34003400343C344B3449344F34EB
:1014F20029342834003400343E343F344C343A34F6
:1015020050345F34003400340034403400347B34CF
:101512002B3400340034003400340D347D34003474
:101522007E340034003400347C340034003400341F
:101532000034083400340034313400343434373465
:1015420000340034003430342E34323435343634FE
:1015520038341B34003400342B3433342D342A34E1
:1015620039341C3400340034003400340034003484
:10157200113400340034003400341A34133401348A
:10158200173400340034003403341834043405347E
:101592000034003400340034203416340634143459
:1015A20012340034003400340E3402340834073468
:1015B200193400340034003400340D340A34153444
:1015C200003400340034003400340B3409340F3456
:1015D2000034003400340034003400340C3400345D
:1015E20010340034003400340034003400341B342E
:1015F2001E3400340034003400340D341D34003401
:101602000034003400340034003400340034003438
:101612000034083400340034003400340034003420
:101622000034003400340034003400340034003418
:1016320000341B34003400340034003400340034ED
:1016420000341E34003400340034003400340034DA
:10165200113400340034003400341A3413340134A9
:10166200173400340034003403341834043405349D
:101672000034003400340034203416340634143478
:1016820012340034003400340E3402340834073487
:1016920019341E340034003400340D340A34153445
:1016A200003400340034003400340B3409340F3475
:1016B2000034003400340034003400340C3400347C
:1016C20010340034003400340034003400341B344D
:1016D200003400340034003400340D341D3400343E
:1016E2001C3400340034003400340034003400343C
:1016F2000034083400340034003400340034003440
:101702000034003400340034003400340034003437
:1017120000341B340034003400340034003400340C
:101722000034003400340034003400340034003417
:10173200113400340034003400341A3413340134C8
:1017420017340034003400340334183404340534BC
:101752000034003400340034203416340634143497
:1017620012340034003400340E34023408340734A6
:1017720019341E340034003400340D340A34153464
:10178200003400340034003400340B3409340F3494
:101792000034003400340034003400340C3400349B
:1017A20010340034003400340034003400341B346C
:1017B200003400340034003400340D341D3400345D
:1017C2001E340034003400341C340034003400343D
:1017D200003408340034003400340034003400345F
:1017E2000034003400340034003400340034003457
:1017F20000341B340034003400340034003400342C
:021802000034B0
:02400E0050FF61
:024200000000BC
:00000001FF
