:02000000FC2FD3
:1005E000F7007530F6007608F000F101F10A77089F
:1005F000B8270800F6007608F5007508F000F1014C
:10060000F10A7730392377080800F400ED30F30061
:100610007308FD00962360237C08FA3A031D0A2B19
:100620007408F3007308FD00962360237C08FA3AEF
:1006300003190800142BF700073005238230F60059
:10064000DD30F500F50B222BF60B222B272B00308B
:1006500005238230F600DD30F500F50B2D2BF60B6F
:100660002D2B322B0130F7027708FF3A03190800CF
:100670001C2BF4007408F2007208F30083160313B5
:100680009C183E2B70089B000130F1027108FF3A64
:10069000031908009C184A2B7F30F20072089C0551
:1006A0001C141A08F20073088400720880000130DC
:1006B000F2007208F3070130F20072089B07442B26
:1006C000FB117B120930F0007008F100FC01831669
:1006D000031305148312051C752B6A2B0310FC0CE5
:1006E000F327831203138518FC170130F102031D51
:1006F0006E2BF327F32783120313051C7B2B0510A6
:100700008316031305107C08F03A031D892B7B1612
:100710008D2B7C08E03A0319FB157C08E03A03199D
:10072000622B7C08F03A031D0800622B0930F000B0
:100730007008F100F201F20A831203138510831688
:10074000031385108312031305108316031305107A
:100750002130F000F00BAA2B83160313051483122B
:10076000051CC52BAF2B7D1CB92B831203138514DD
:10077000BC2B831203138510F3277D1CC32B013080
:10078000F0007008F2070310FD0C0130F102031DA8
:10079000B32B721CCF2B831203138514D22B83121D
:1007A00003138510F327831603138514831285180A
:1007B000D62B0518D92B8518051CDB2B05108316A5
:1007C0000313051008000030FA22F800780883129D
:1007D0000313A60007309F000515831603130511A8
:1007E000FF308312031386008316031386017C08EF
:1007F000031DFC2B6023F72B0230052360237C08AC
:100800000319FE2B831203138617A701FB191B2C58
:10081000D02CFB147B1EE72CFB10E72C8A2C7B1AB8
:10082000E72C2F30CC2C7B1AE72C0D30CC2C7B1AEC
:10083000E72C7F30CC2C7C08113A0319092C053A9F
:1008400003190E2C5E3A03190F2C103A0319132CBE
:100850002B3A0319172CE72CE72C7B1E7B1CE72C6B
:10086000003005230230FA000430F900BA30F800F5
:10087000F80B382CF90B382CFA0B382C000001300F
:10088000F800780883120313A606260801391B23F3
:100890007B1B4C2C02304D2C063083120313A0001E
:1008A0000030A10020080523E72C7B1E7B1DE72CD0
:1008B0007B1CE72C003005230230FA000430F900DD
:1008C000BA30F800F80B622CF90B622CFA0B622C90
:1008D0000000831203132608F8007808F5000030A2
:1008E000F02202301B237B1B772C0230782C063041
:1008F00083120313A2000030A30022080523E72C73
:100900007B147B1EE72C7B10E72CFB167B1EE72C51
:10091000FB12E72C7B157B1EE72C7B11E72C7B1A47
:10092000E72C4030FB067B1B972C0230982C0630BE
:10093000A4000030A50024080523E72C7B1AE72C2F
:100940000D307C02031CE72C7E307C020318E72C60
:100950000D30FC020130F8007808A6050319B42C0C
:100960007130F8007808FC077B1DBB2C7C08123E18
:1009700084008530C82CFB1ABF2C7B1FC42C7C083C
:10098000D63E84008630C82C7C08F43E8400853036
:100990000318013EFF000025F8007808A700E72CA7
:1009A0007C08053A03192D2C0C3A0319552C183ADA
:1009B0000319802C033A0319852C063A03198A2C53
:1009C0004C3A03198F2C013A0319852C9E2C831263
:1009D000031327080319F92C27098600D630F800DD
:1009E000F12CF22CF80BF02C000083120313861369
:1009F000FE2B7B18FB1CFE2C0511FE2B0515FE2B78
:100A0000FF1B0A2D83137F1883170008840A03191C
:100A1000FF0A08007F087F398A000408840A031946
:100A2000FF0A82000A341C340034003400340034DD
:100A300000340034113400340034003400341A34EB
:100A400013340134173400340034003403341834C0
:100A500004340534003400340034003420341634B7
:100A60000634143412340034003400340E340234AA
:100A700008340734193400340034003400340D34A1
:100A80000A341534003400340034003400340B349C
:100A900009340F340034003400340034003400349E
:100AA0000C3400341034003400340034003400348A
:100AB00000341B341E3400340034003400340D3450
:100AC0001D34003400340034003400340034003469
:100AD000003400340034083400340034003400346E
:100AE0000034003400340034003400340034003466
:100AF0000034003400341B3400340034003400343B
:100B00000034003400340A341E340034003400341D
:100B10000034003400341134003400340034003424
:100B20001A341334013417340034003400340334DD
:100B300018340434053400340034003400342034D4
:100B400016340634143412340034003400340E34B5
:100B500002340834073419340034003400340034CB
:100B60000D340A34153400340034003400340034B9
:100B70000B3409340F3400340034003400340034B2
:100B800000340C34003410340034003400340034A9
:100B9000003400341B34003400340034003400349A
:100BA0000D341D3400341C3400340034003400345F
:100BB000003400340034003408340034003400348D
:100BC0000034003400340034003400340034003485
:100BD00000340034003400341B340034003400345A
:100BE00000340034003400340A345C3400340034FF
:100BF00000340034003400347134313400340034B3
:100C000000347A347334613477343234003400344D
:100C10006334783464346534343433340034003429
:100C2000203476346634743472343534003400340D
:100C30006E346234683467347934363400340034C6
:100C400000346D346A347534373438340034003449
:100C50002C346B3469346F3430343934003400341C
:100C60002E342D346C344034703427340034003446
:100C700000342B3400345B345E34003400340034F0
:100C800000340D345D34003400340034003400345A
:100C90003C34003400340034003408340034003470
:100CA00031340034343437340034003400343034D8
:100CB0002E3432343534363438341B340034003476
:100CC0002B3433342D342A3439340A34603400342C
:100CD00000340034003400340034713431340034D2
:100CE000003400347A34733461347734323400346D
:100CF0000034633478346434653434343334003449
:100D0000003420347634663474347234353400342C
:100D100000346E34623468346734793436340034E5
:100D2000003400346D346A34753437343834003468
:100D300000342C346B3469346F343034393400343B
:100D400000342E342F346C343B3470342D34003462
:100D500000340034273400345B343D340034003434
:100D6000003400340D345D3400345C34003400341D
:100D700000340034003400340034003408340034CB
:100D80000034313400343434373400340034003427
:100D900030342E3432343534363438341B34003465
:100DA00000342B3433342D342A3439340A347C342F
:100DB0000034003400340034003400345134213421
:100DC0000034003400345A3453344134573422341C
:100DD0000034003443345834443445342434233408
:100DE00000340034203456344634543452342534DC
:100DF000003400344E3442344834473459342634B5
:100E00000034003400344D344A3455342F342834FF
:100E1000003400343B344B3449344F343D342934AE
:100E2000003400343A345F344C34603450343F344E
:100E30000034003400342A3400347B347E340034EF
:100E40000034003400340D347D3400340034003478
:100E5000003400343E3400340034003400340834AC
:100E60000034003431340034343437340034003446
:100E7000003430342E3432343534363438341B3484
:100E8000003400342B3433342D342A3439340A34CA
:100E90007E340034003400340034003400345134E3
:100EA00021340034003400345A345334413457343C
:100EB000403400340034433458344434453424340A
:100EC00023340034003420345634463454345234FD
:100ED0002534003400344E344234483447345934D5
:100EE0005E340034003400344D344A3455342634F2
:100EF0002A34003400343C344B3449344F342934E0
:100F00002834003400343E343F344C343A345034C6
:100F10005F34003400340034223400347B342B340A
:100F200000340034003400340D347D3400347C341B
:100F30000034003400340034003400340034003411
:100F4000083400340034313400343434373400345D
:100F50000034003430342E343234353436343834BE
:100F60001B34003400342B3433342D342A343934D8
:100F7000F4007008F2007208F300831603139C1843
:100F8000BD2F7408FF3E9B007F30F20072089C0565
:100F90000130F1027108FF3A0319080083160313A8
:100FA0009C18CE2F7308840000089A000130F200CC
:100FB0007208F3070130F20072089B0783120313D3
:100FC00003108B1B03148B13831603131C1555304E
:100FD0009D00AA309D009C141C1183120313031C56
:100FE000C82F8B17C82F83120313051CF32F051C62
:040FF0000800F72FCF
:080FF800FB01FD018301E32B65
:02400E0050FF61
:024200000000BC
:00000001FF
