:10000000203084002F300820FB2D04068001840A54
:100010000406031D05286400003483120313AF0097
:10002000B01B1B28301B232830088A002F08AF0A7A
:100030000319B00A82008313301883172F08AF0A00
:100040008400000808000A341C34003400340034F2
:1000500000340034003411340034003400340034EF
:100060001A341334013417340034003400340334A8
:10007000183404340534003400340034003420349F
:1000800016340634143412340034003400340E3480
:100090000234083407341934003400340034003496
:1000A0000D340A3415340034003400340034003484
:1000B0000B3409340F34003400340034003400347D
:1000C00000340C3400341034003400340034003474
:1000D000003400341B341E34003400340034003447
:1000E0000D341D3400340034003400340034003446
:1000F0000034003400340034083400340034003458
:10010000003400340034003400340034003400344F
:1001100000340034003400341B3400340034003424
:1001200000340034003400340A341E340034003407
:10013000003400340034003411340034003400340E
:1001400000341A34133401341734003400340034CA
:1001500003341834043405340034003400340034DB
:10016000203416340634143412340034003400348D
:100170000E340234083407341934003400340034A7
:1001800000340D340A3415340034003400340034A3
:1001900000340B3409340F3400340034003400349C
:1001A000003400340C340034103400340034003493
:1001B0000034003400341B34003400340034003484
:1001C00000340D341D3400341C3400340034003449
:1001D0000034003400340034003408340034003477
:1001E000003400340034003400340034003400346F
:1001F000003400340034003400341B340034003444
:10020000003400340034003400340A340034003444
:10021000003400340034003400341134003400342D
:10022000003400341A3413340134173400340034E9
:1002300000340334183404340534003400340034FA
:1002400000342034163406341434123400340034AC
:1002500000340E34023408340734193400340034C6
:10026000003400340D340A341534003400340034C2
:10027000003400340B3409340F34003400340034BB
:100280000034003400340C340034103400340034B2
:1002900000340034003400341B34003400340034A3
:1002A000003400340D341D3400341E340034003466
:1002B00000341C340034003400340034083400347A
:1002C000003400340034003400340034003400348E
:1002D0000034003400340034003400341B34003463
:1002E0000034003400340034003400340A347C34E8
:1002F00000340034003400340034003451342134EC
:100300000034003400345A345334413457342234E6
:1003100000340034433458344434453424342334D2
:1003200000340034203456344634543452342534A6
:10033000003400344E34423448344734593426347F
:100340000034003400344D344A3455342F342834CA
:10035000003400343B344B3449344F343D34293479
:10036000003400343A345F344C34603450343F3419
:100370000034003400342A3400347B347E340034BA
:100380000034003400340D347D3400340034003443
:10039000003400343E340034003400340034083477
:1003A0000034003431340034343437340034003411
:1003B000003430342E3432343534363438341B344F
:1003C000003400342B3433342D342A3439340A3495
:1003D0007E340034003400340034003400345134AE
:1003E00021340034003400345A3453344134573407
:1003F00040340034003443345834443445342434D5
:1004000023340034003420345634463454345234C7
:100410002534003400344E3442344834473459349F
:100420005E340034003400344D344A3455342634BC
:100430002A34003400343C344B3449344F342934AA
:100440002834003400343E343F344C343A34503491
:100450005F34003400340034223400347B342B34D5
:1004600000340034003400340D347D3400347C34E6
:1004700000340034003400340034003400340034DC
:100480000834003400343134003434343734003428
:100490000034003430342E34323435343634383489
:1004A0001B34003400342B3433342D342A343934A3
:1004B0000A34003400340034003400340034003492
:1004C000513421340034003400345A34533441342C
:1004D00057342234003400344334583444344534DF
:1004E0002434003400340034203456344634543438
:1004F00052342534003400344E34423448344734C6
:1005000059345E340034003400344D344A345534A8
:1005100026342A34003400343C344B3449344F34CC
:1005200029342834003400343E343F344C343A34D7
:1005300050345F34003400340034403400347B34B1
:100540002B3400340034003400340D347D34003456
:100550007E340034003400347C3400340034003401
:100560000034083400340034313400343434373447
:1005700000340034003430342E34323435343634E0
:1005800038341B34003400342B3433342D342A34C3
:1005900039340A345C34003400340034003400341C
:1005A0000034713431340034003400347A3473341C
:1005B0006134773432340034003463347834643452
:1005C00065343434333400340034203476346634C3
:1005D000743472343534003400346E346234683428
:1005E0006734793436340034003400346D346A347E
:1005F000753437343834003400342C346B34693477
:100600006F3430343934003400342E342D346C34AB
:100610004034703427340034003400342B34003438
:100620005B345E3400340034003400340D345D3407
:10063000003400340034003400343C3400340034DE
:10064000003400340834003400343134003434349D
:10065000373400340034003430342E3432343534FE
:10066000363438341B34003400342B3433342D34D6
:100670002A3439340A34603400340034003400340D
:1006800000340034713431340034003400347A34AE
:100690007334613477343234003400346334783462
:1006A00064346534343433340034003420347634E4
:1006B0006634743472343534003400346E34623449
:1006C00068346734793436340034003400346D349F
:1006D0006A34753437343834003400342C346B3495
:1006E00069346F3430343934003400342E342F34CC
:1006F0006C343B3470342D340034003400342734EF
:1007000000345B343D3400340034003400340D34A4
:100710005D3400345C340034003400340034003480
:1007200000340034003408340034003431340034F0
:100730003434373400340034003430342E3432341E
:100740003534363438341B34003400342B343334ED
:100750002D342A3439340A346034003400340034FF
:100760000034003400347134313400340034003447
:100770007A3473346134773432340034003463347F
:100780007834643465343434333400340034203401
:1007900076346634743472343534003400346E3454
:1007A00062346834673479343634003400340034C9
:1007B0006D346A34753437343834003400342C34B2
:1007C0006B3469346F3430343934003400342E34AF
:1007D0002F346C343B3470342D3400340034003406
:1007E000273400345B343D340034003400340034AA
:1007F0000D345D34003423340034003400345C3470
:10080000003400340034003408340034003431340F
:1008100000343434373400340034003430342E346F
:1008200032343534363438341B34003400342B340D
:0808300033342D342A3439342D
:10092A008301A9007B3029020318A02C6130290217
:10093A00031CA02CA912290808008301A9005B3016
:10094A0029020318AD2C41302902031CAD2CA9162B
:10095A0029080800B02C83120313051CB52CB62CE9
:10096A00B02CB72C0518BA2CBB2CB72CBC2C080001
:10097A0083120313A9000730FA246430E4240030F8
:10098A00FA246430E424A903290FCC2CCD2CC02CE2
:10099A00CE2C0800FE01FF010310FD0CFC0C031C09
:1009AA00DD2C7A08FE077B0803187B0AFF07031071
:1009BA00FA0DFB0D7C087D0403190034D12C831237
:1009CA000313AA000430AB005330AC00ED2CED2C1D
:1009DA00AC0BF02CF12CEC2CAB0BF42CF52CE92CF9
:1009EA00AA0BF82CF92CE72C080083120313AA008F
:1009FA00ED30A100A4255F252208FA3A031D062D31
:100A0A00072DFF2C2A08A100A4255F252208FA3AFF
:100A1A00031D102D112D092D122D08008312AB0074
:100A2A00AC00290883169B009C1C282D192D8316BF
:100A3A001C1483122C08840083161A08800083125F
:100A4A00AC0A83169B0A8312AA032A0F1C2D2B08B1
:100A5A0008008312AC002908AD002A08AE008316EC
:100A6A009C18342D83122C0383169B00592D831650
:100A7A009C183C2D83122E08B0002D080D208316D9
:100A8A009A008312AD0A0319AE0A83169B0A031051
:100A9A008B1B03148B131C1555309D00AA309D0027
:100AAA009C141C1103188B178312AB032B0F3C2DBC
:100ABA002C080800831203132012A0120930AB007D
:100ACA00A20183160514692D831205186D2D6E2D4A
:100ADA00692D772D0310A20CAF24851C752D762D58
:100AEA00772DA217AB0B7A2D7B2D6F2DAF24AF2458
:100AFA007E2D051C812D822D7E2D05108316051055
:100B0A0083122208F03A031D8B2D8C2D8E2DA016F0
:100B1A00952D2208E03A031D932D942D952D20162C
:100B2A002208E03A0319A02D9A2D2208F03A031957
:100B3A00A02D9F2DA22DA12D632DA32D08000930D4
:100B4A0083120313AB00AC01AC0A8510831685101F
:100B5A00831205108316051021308312AD00B62DBD
:100B6A00B62DAD0BB92DBA2DB52D83160514BD2D95
:100B7A0083120518C12DC22DBD2DD22D211CC62DC3
:100B8A00C72DC92D8514CA2D8510AF24211CCE2D41
:100B9A00CF2DD02DAC0A0310A10CAB0BD52DD62D21
:100BAA00C32D2C1CD92DDA2DDC2D8514DD2D8510B5
:100BBA00AF2483168514E12D83128518E52DE62DC1
:100BCA00E12DE72D0518EA2DEB2DE72DEC2D051C5F
:100BDA00F32DEF2D851CF32DF22DF52DF42DEC2D93
:100BEA00051083160510F92D831208000030A9009C
:100BFA000130AA00831203132330132507309F0004
:100C0A00051583160511FF308312860083168601A7
:100C1A00FA30E424FA30E424FA30E4240230FA24E4
:100C2A005F25A20803191A2E1B2E152EFF308600E7
:100C3A00A401A501201E222E232E942E2E2EA014AE
:100C4A00A01E282EA010362EA015A01E2D2EA011F3
:100C5A00362E2208113A0319242E053A0319292E91
:100C6A00362E83120313A01A3B2E3C2E932E6D2E82
:100C7A002F30A500932E0D30A500932EA01D4A2ECD
:100C8A00462E201C4A2E492E4C2E4B2E4F2E1F30FC
:100C9A00A500512E7F30A500932E1630A500932E65
:100CAA001D30A500932E1430A500932E1330A500F5
:100CBA00932E0730A500932E1530A500932E1A30D7
:100CCA00A500932E1830A500932E1930A500932E57
:100CDA0022084A3A03193D2E103A0319402E333A94
:100CEA000319582E023A0319672E073A0319552E8B
:100CFA001C3A0319522E013A0319432E033A0319D7
:100D0A00642E063A03196A2E013A0319612E0F3A24
:100D1A0003195E2E073A03195B2E932EC52FA42EB4
:100D2A002014A01E992E2010B22E2017A01E9E2E2F
:100D3A002013B22EA015A01EA32EA011B22E220897
:100D4A00113A0319952E033A03199A2E063A0319F2
:100D5A009F2E4D3A03199A2EB22E83120313A01A0C
:100D6A00B72EB82EC52F9C2F201CBC2EBD2ED52EDB
:100D7A000030FA24C830E4240330A30A2302031CF7
:100D8A00C72EC82EC92EA3012308BD242019D22E8E
:100D9A00CE2E0230D32E0630D32ED02EFA24D72EC2
:100DAA004130A400C52F4230A400C52F4330A4000F
:100DBA00C52F4430A400C52F4530A400C52F4630A6
:100DCA00A400C52F4730A400C52F4830A400C52F62
:100DDA004930A400C52FA01DF72EF32E201CF72E94
:100DEA00F62EF92EF82E112F0030FA24C830E424FA
:100DFA002330A9008030AA000130AB0000302E2534
:100E0A000430BD2420190E2F0A2F02300F2F06306E
:100E1A000F2F0C2FFA24132F4A30A400C52F4B3062
:100E2A00A400C52F4C30A400C52F0430A0062019F9
:100E3A00232F1F2F0230242F0630242F212FFA248C
:100E4A00C52F0D302202031C312F2B2F7E30220298
:100E5A000318312F302F332F322F9B2FF330A20755
:100E6A00A01D382F392F542F7130FC000030FD009F
:100E7A002308FA00FB01CF242208A700A8017E0854
:100E8A00A7070318A80A7F08A8072808003EB00089
:100E9A002708233E0318B00A0D20A5009B2F201F08
:100EAA00572F582F7A2F7130FC000030FD0023088D
:100EBA00FA00FB01CF242208A700A8017E08A70791
:100ECA000318A80A7F08A8072808013EB0002708C7
:100EDA00763E0318B00A0D20A500201D752F762F27
:100EEA00792F2508A224A5009B2F7130FC00003021
:100EFA00FD002308FA00FB01CF242208A700A8015D
:100F0A007E08A7070318A80A7F08A8072808023E30
:100F1A00B0002708C93E0318B00A0D20A500201DFD
:100F2A00972F982F9B2F25089524A500C52F2208B7
:100F3A00013A0319ED2E023A0319E12E073A031971
:100F4A00DB2E013A0319B92E033A0319D82E013AB6
:100F5A000319172F0E3A0319F02E033A0319EA2E32
:100F6A00013A0319E42E073A0319DE2E543A0319FB
:100F7A001A2F203A0319142FFB3A0319E72E262FAA
:100F8A00A4080319C92FCA2FE02FE4308600F530D0
:100F9A00A600D02FD02FA60BD32FD42FCF2F861356
:100FAA004D30A600D92FD92FA60BDC2FDD2FD82F35
:100FBA0086172408A500A5080319E42FE52FF12FA9
:100FCA0025098600F530A600EB2FEB2FA60BEE2F96
:100FDA00EF2FEA2F8613FD2F201CF82FF42FA01CC9
:100FEA00F82FF72FFA2FF92FFC2F0511FD2F0515D2
:060FFA00152E8301002802
:02400E00503F21
:024200000000BC
:00000001FF
